:02000004085F93
:10E0000000E05F08FCFF5F0800000600200005013B
:08E0100004010D1700000000DF
:10E018001348144908B5884205D0134A824202D0F1
:10E02800124B121A98471248124A0021124B121A20
:10E03800984712481249884205D0124A824202D0B3
:10E048000A4B121A984710481049884205D0104ABE
:10E05800824202D0054B121A9847014808BD00BFFA
:10E06800FCAD07106CF85F086CAE07102D0D111091
:10E078006CAE0710FCAF0710A10E111038E83F0274
:10E08800A8E05F0840E83F0240E83F02B0E05F08D0
:0CE09800FCFF3F0219E05F0800000000E0
:08E0A8009CE05F0880FD3F02CF
:10E0B000034613F8012B002AFBD1181A01387047C8
:10E0C00070B500F07FFD0025054E064CA41BA4088A
:10E0D000AC4200D170BD56F8043B98470135F7E7D4
:10E0E000D4FF3F02FCFF3F0200F021B808B500F06A
:10E0F0004BF8BDE8084000F01DBD00F07DBB00F00E
:10E1000089BB0078B0FA80F04009704701230370A2
:10E1100070470EB403B503AB53F8042B00210193F1
:10E1200000F067FC02B05DF804EB03B0704738B54F
:10E1300000F054FE4FF4165100F040FE002000F0B5
:10E14000C9F842F210750446002000F0C3F8001B25
:10E1500061F10001A84271F1000307D200F03EFE18
:10E1600000F030FE10B900F02BFBEDE700F036FEBA
:10E1700000F028FE0121032001F04AF8BDE83840F4
:10E180000021102001F044B810B50121032001F056
:10E1900050F8102001F066F80022064C064B206073
:10E1A0001A6028B100F01AFE22680449FFF7B1FF97
:10E1B00010BD00BF7CAE071078AE071090FD3F0287
:10E1C0000022044B0220C3E90022A2F580329A60AB
:10E1D00000F008BA6CAE071009B504480068044B9B
:10E1E00003441B689B68029309BD0000FCAD071047
:10E1F0005000000009B504480068044B03441B6844
:10E20000DB68029309BD0000FCAD07105000000060
:10E2100009B504480068044B03441B685B6802931B
:10E2200009BD0000FCAD07101400000009B504484A
:10E230000068044B03441B689B68029309BD0000FF
:10E24000FCAD07101400000009B504480068044B39
:10E2500003441B68DB68029309BD0000FCAD071096
:10E260001400000009B504480068044B03441B680F
:10E270001B69029309BD0000FCAD071014000000EB
:10E2800009B504480068044B03441B681B6B0293E8
:10E2900009BD0000FCAD07101400000009B50448DA
:10E2A0000068044B03441B685B68029309BD0000CF
:10E2B000FCAD07100000000009B504480068044BDD
:10E2C00003441B685B69029309BD0000FCAD0710A5
:10E2D0000000000009B504480068044B03441B68B3
:10E2E000DB6D029309BD0000FCAD071000000000CB
:10E2F00009B504480068044B03441B685B6C029337
:10E3000009BD0000FCAD07103000000009B504484D
:10E310000068044B03441B685B69029309BD00005D
:10E32000FCAD07104C00000009B504480068044B20
:10E3300003441B68DB68029309BD0000FCAD0710B5
:10E340002400000009B504480068044B03441B681E
:10E350001B69029309BD0000FCAD071024000000FA
:10E3600009B504480068044B03441B685B690293C9
:10E3700009BD0000FCAD07102400000009B50448E9
:10E380000068044B03441B689B69029309BD0000AD
:10E39000FCAD07102400000009B504480068044BD8
:10E3A00003441B68DB69029309BD0000FCAD071044
:10E3B0002400000009B504480068044B03441B68AE
:10E3C0001B6A029309BD0000FCAD07102400000089
:10E3D00009B504480068044B03441B689B6A029318
:10E3E00009BD0000FCAD07102400000009B5044879
:10E3F0000068044B03441B681B6C029309BD0000BA
:10E40000FCAD07102400000009B504480068044B67
:10E4100003441B681B6A029309BD0000FCAD071092
:10E420001000000009B504480068044B03441B6851
:10E430005B6A029309BD0000FCAD071010000000EC
:10E4400009B504480068044B03441B689B6A0293A7
:10E4500009BD0000FCAD07101000000009B504481C
:10E460000068044B03441B68DB6A029309BD00008B
:10E47000FCAD07101000000009B504480068044B0B
:10E4800003441B681B6B029309BD0000FCAD071021
:10E490001000000009B504480068044B03441B68E1
:10E4A0005B6B029309BD0000FCAD0710100000007B
:10E4B00009B504480068044B03441B681B6C0293B5
:10E4C00009BD0000FCAD07101000000009B50448AC
:10E4D0000068044B03441B68DB69029309BD00001C
:10E4E000FCAD07101800000009B504480068044B93
:10E4F00003441B681B6A029309BD0000FCAD0710B2
:10E500001800000009B504480068044B03441B6868
:10E510001B68029309BD0000FCAD07103400000029
:10E5200009B504480068044B03441B685B68029308
:10E5300009BD0000FCAD07103400000009B5044817
:10E540000068044B03441B681B69029309BD00006B
:10E55000FCAD07103400000009B504480068044B06
:10E5600003441B685B69029309BD0000FCAD071002
:10E570003400000009B504480068044B03441B68DC
:10E580009B69029309BD0000FCAD07103400000038
:10E5900009B504480068044B03441B68DB69029317
:10E5A00009BD0000FCAD07103400000009B50448A7
:10E5B0000068044B03441B681B6A029309BD0000FA
:10E5C000FCAD07103400000009B504480068044B96
:10E5D00003441B689B6A029309BD0000FCAD071051
:10E5E0003400000009B504480068044B03441B686C
:10E5F0005B68029309BD0000FCAD07100800000035
:10E6000009B504480068044B03441B68D3F88830FC
:10E61000029309BDFCAD07100800000009B50448CD
:10E620000068044B03441B68D3F89430029309BD7F
:10E63000FCAD07100800000009B504480068044B51
:10E6400003441B685B68029309BD0000FCAD071022
:10E650002800000009B504480068044B03441B6807
:10E660009B68029309BD0000FCAD07102800000064
:10E6700009B504480068044B03441B68DB68029337
:10E6800009BD0000FCAD07102800000009B50448D2
:10E690000068044B03441B681B69029309BD00001A
:10E6A000FCAD07102800000009B504480068044BC1
:10E6B00003441B685B69029309BD0000FCAD0710B1
:10E6C0002800000009B504480068044B03441B6897
:10E6D0009B69029309BD0000FCAD071028000000F3
:10E6E00009B504480068044B03441B68DB690293C6
:10E6F00009BD0000FCAD07102800000009B5044862
:10E700000068044B03441B681B6A029309BD0000A8
:10E71000FCAD07102800000009B504480068044B50
:10E7200003441B681B6B029309BD0000FCAD07107E
:10E730002800000009B504480068044B03441B6826
:10E740005B6B029309BD0000FCAD071028000000C0
:10E7500009B504480068044B03441B681B6C029312
:10E7600009BD0000FCAD07102800000009B50448F1
:10E770000068044B03441B685B6C029309BD0000F6
:10E78000FCAD07102800000009B504480068044BE0
:10E7900003441B685B6D029309BD0000FCAD0710CC
:10E7A0002800000009B504480068044B03441B68B6
:10E7B0009B6D029309BD0000FCAD0710280000000E
:10E7C00009B504480068044B03441B689B68029326
:10E7D00009BD0000FCAD07102C00000009B504487D
:10E7E0000068044B03441B68DB6B029309BD000007
:10E7F000FCAD07102C00000009B504480068044B6C
:10E8000003441B681B68029309BD0000FCAD0710A0
:10E810000400000009B504480068044B03441B6869
:10E820005B68029309BD0000FCAD07100400000006
:10E8300009B504480068044B03441B685B6A0293F3
:10E8400009BD0000FCAD07100400000009B5044834
:10E850000068044B03441B681B6C029309BD000055
:10E86000FCAD07100400000009B504480068044B23
:10E8700003441B685B6C029309BD0000FCAD0710EC
:10E8800004000000002240681146FFF737BF002255
:10E8900040681146FFF74EBF00224068FFF73CBFBB
:10E8A0000022406881F00101FFF71ABF0023406891
:10E8B0001A461946FFF706BF002340681A46194654
:10E8C000FFF7F2BE002240681146FFF7DFBE0022CC
:10E8D00040681146FFF7BEBE002202214068FFF7E4
:10E8E000C7BE002340681A46FFF7A6BE0322024BAC
:10E8F0005A60024A1A60704780AE0710A4FD3F02BA
:10E9000010B5044608462170FFF7E0FD00232046BD
:10E91000636010BD02220020044B1A60044B054ABC
:10E92000C3E900009A60FFF75DBE00BF94AE071018
:10E9300088AE07100000FFFF002302480360FFF7C6
:10E94000D7BC00BF98AE0710F8B506460D460024A8
:10E950008F18BD420CD0336830469B6815F8011BF8
:10E960009847031E01DB1C44F3E7002C08BF1C463C
:10E970002046F8BD13B50446084659B10191FFF78A
:10E9800097FB0246204623680199DB6802B0BDE888
:10E990001040184702B010BD03689B68184738B58F
:10E9A0000D210546FFF7F8FF0A2104462846FFF728
:10E9B000F3FF204438BD0023012A98BF0A2230B556
:10E9C0008BB08DF8243009AC0D46B1FBF2F101FBA0
:10E9D000125303F0FF03092B94BF30333733DBB2FC
:10E9E000AA4204F8013DEFD92146FFF7C3FF0BB05F
:10E9F00030BD2DE9F04186B000AF05460E46381D0A
:10EA0000142114463B60FFF713FF13280ED8284645
:10EA1000391DFFF7AFFF04461EB12846FFF7BFFFC1
:10EA2000044420461837BD46BDE8F08100F10803D4
:10EA300023F00703E846ADEB030D2246411C3B687B
:10EA40006846FFF7F5FE69462846FFF793FF044640
:10EA5000C546E1E710B50446FFF72EFCE0602368E9
:10EA600020465B699847002808DAFFF725FCE36831
:10EA7000C01AA3689842F2D34FF0FF3010BD2DE9C1
:10EA8000F04107460C460D468E18B542A5EB04082A
:10EA900007D03846FFF7DEFF031E02DB05F8013B17
:10EAA000F3E74046BDE8F081014B024A1A60704727
:10EAB0009CAE0710E0FD3F02024B1A68024B1A6041
:10EAC000704700BF00AE0710A0AE07100022014B38
:10EAD0009A607047A4AE0710014B1860704700BFE2
:10EAE00004AE071008B50F4B43B100F077F9036887
:10EAF0001B699847002801DD00E000BF0A4B43B1C5
:10EB000000F0F2FB03681B699847002801DD00E074
:10EB100000BF064B0BB100F02DFC054B0BB100F014
:10EB20005FFC08BD000000000000000000000000C5
:10EB30000000000008B5FFF7D5FFFFF7BDFB014B54
:10EB4000186008BD4CAF07100548064A08B5121AF0
:10EB5000054900F0A1FC054B054A1A6008BD00BF3D
:10EB600000B4071004B40710DCF85F0800B4071005
:10EB70001E1C279A002307B51A466FF077010093F1
:10EB8000FFF74CFD03B05DF804FB000007B54388B8
:10EB90000A2B08D0502B0BD1094B1B684BB103B08B
:10EBA0005DF804EB1847FFF7E5FF03B05DF804FBE1
:10EBB00000231A466FF077010093FFF72FFDF4E76B
:10EBC000B8AE0710002110B51148FFF74DFE114BEC
:10EBD0001A68114B9A420CBF012200220F4B1A7087
:10EBE00001D0FFF7B1FFFFF759FB044600F06AFCC4
:10EBF0000B4B13B1204600E000BF00210848FFF78F
:10EC0000EDFDBDE8104000210648FFF7F9BC00BF4C
:10EC100069F23F0200B407101E1C279AB4AE071019
:10EC2000000000001DF33F02704710B50446182194
:10EC3000FFF765FA204610BDF0B5037D0E46062BA2
:10EC40004FF000048DB000F1040712D000F1080568
:10EC500015F8011D0A223046FFF7ADFEAF4204440D
:10EC600019D0002CF4D02E213046FFF795FE044435
:10EC7000EEE72F236A4639460A208DF80040FFF759
:10EC800045FB6846FFF714FA33680246694630468A
:10EC9000DB689847044620460DB0F0BD10B5044629
:10ECA000044B1122002140F8043B00F002FC2046F6
:10ECB00010BD00BF08FE3F020346074A10B543F8E7
:10ECC000042B01F1100251F8044B914243F8044B1C
:10ECD000F9D10A781A7010BD08FE3F0210B59DF8F0
:10ECE000084044EA032343EA0242042342EA016162
:10ECF0004160037510BD000007B5064B0360CB787B
:10ED000000938B784A780978FFF7E8FF03B05DF845
:10ED100004FB00BF08FE3F02417470477047704714
:10ED200008B50021007CFFF725FC40EAE07008BD33
:10ED300008B50121007CFFF71DFC40EAE07008BD2A
:10ED400008B5007CFFF708FC20EAE07008BD08B5B4
:10ED5000007CFFF7F3FB20EAE07008BD13B5044622
:10ED6000007C0191FFF7F8FB0028019901DC607C31
:10ED700020B1207CFFF70CFC20EAE07002B010BD4F
:10ED8000007CFFF713BC10B504461421FFF7B7F958
:10ED9000204610BD10B54FF47A7304460846002192
:10EDA000C4E90113044B20742360012311466374EA
:10EDB000FFF7A8FB204610BD1CFE3F020022007C8E
:10EDC000FFF7AEBB007CFFF7FFBB10B50446142273
:10EDD000002100F06EFB204610BD000010B588B089
:10EDE00003A8FFF7F2FF0C4CD4E88F1F11F00101CC
:10EDF0000FD120460191FFF784F9019948B103AA88
:10EE00000648FFF7C7FF2046FFF780F9044800F0E7
:10EE10003DFB024808B010BDBCAE0710C0AE0710E5
:10EE2000ADF43F0270474174704708B5007CFFF7AE
:10EE3000CFFA20EAE07008BD08B5007CFFF782FA3F
:10EE400020EAE07008BD08B5007CFFF797FA40EAB9
:10EE5000E07008BD08B5007CFFF782FA40EAE07078
:10EE600008BD007CFFF798BA37B5457C04462DB144
:10EE7000207C03B0BDE83040FFF756BA007C01911A
:10EE8000FFF7A6FA00280199F2DC284603B030BD4E
:10EE900010B504461421FFF732F9204610BD0000DA
:10EEA00010B54FF47A730446084611460022C4E9AF
:10EEB0000123044B2074236001236374FFF796FA47
:10EEC000204610BD50FE3F02007CFFF773BA70472A
:10EED000F8B5064615460C468F18BC4206D0336876
:10EEE00030469B6814F8011B9847F6E72846F8BDA2
:10EEF0000022007CFFF788BA0021007CFFF792BA5D
:10EF00000021007CFFF79CBA0021007CFFF7A6BA25
:10EF10000021007CFFF7B0BA10B504461421FFF7BA
:10EF2000EEF8204610BD000038B5044615464FF4F3
:10EF30007A730022C4E90123094B08462174236037
:10EF40002946FFF7B5FABF3008D16B69DB0705D555
:10EF50006868FFF75FFCE868FFF75CFC204638BD97
:10EF600084FE3F02FF210022044B0120C3E900126E
:10EF700064211A61C3E90201704700BFD4AE0710D3
:10EF8000002240681146FFF781BB0022406811460D
:10EF9000FFF7B4BB002240681146FFF7CBBB00224D
:10EFA0004068FFF7B9BB0022406881F00101FFF71C
:10EFB00097BB002340681A461946FFF783BB00231E
:10EFC00040681A461946FFF76FBB00224068114699
:10EFD000FFF740BB002202214068FFF749BB002336
:10EFE00040681A46FFF728BB0422024B5A60024AC7
:10EFF0001A607047E8AE0710B0FE3F020023406879
:10F000001A46FFF719BB002202214068FFF730BB08
:10F01000002240681146FFF71DBB002240681146E0
:10F02000FFF734BB002340681A461946FFF73CBB84
:10F03000002340681A461946FFF744BB0021406888
:10F04000FFF786BB00214068FFF790BB00224068B5
:10F0500081F00101FFF744BB00224068FFF75CBB71
:10F06000002240681146FFF765BB00224068114648
:10F07000FFF744BB00214068FFF794BB2DE9F04344
:10F0800095B014460D460746FFF708FE00211C22E6
:10F090000DA8009100F00DFA402320460C930021AA
:10F0A0006B460CAAFFF7A6F8044600284BD102468F
:10F0B00001216868FFF7EAFA022180462246686863
:10F0C000FFF7E4FA21468146009E002E3BD000293E
:10F0D00039D17368022B03D00A2B11D0F669F4E7FB
:10F0E000B8F1000FFAD0716906A804313C1D07ADD4
:10F0F000FFF702FE0FCD0FC42B6841462370EDE7EA
:10F10000B9F1000FEAD0102201A8746900F0D1F91A
:10F11000062301AD8DF8143004F1080318342A4693
:10F1200018685968083303C2A3421546F7D101A9EC
:10F1300006A83C1D07ADFFF7BFFD0FCD0FC42B6820
:10F1400049462370CAE70098FFF746F8384615B0DD
:10F15000BDE8F083033802289ABF024B53F8200021
:10F1600001487047ECFE3F02F0AE071008B50022E0
:10F170004068FFF709FBBDE80840FFF7EBBF000060
:10F18000024B034A1A6000225A607047F0AE071023
:10F1900000FF3F021B2837B5044602D9002003B008
:10F1A00030BDA0F10F03022B0BD9012821D800F0AC
:10F1B00047F90021007CFFF76DF980F00100C0B233
:10F1C000EDE7114DD5E88F1F11F001010BD1284655
:10F1D0000191FEF796FF019928B10C48FFF790FBCB
:10F1E0002846FEF793FF094B1878FFF77DF90028B2
:10F1F000D4D1083C012C05D800F076F8007CFFF74C
:10F20000D9F8DAE70120CAE7F8AE0710FCAE07101C
:10F210001B2838B504460D460AD8FF2908D0FFF749
:10F22000B9FF28B129462046BDE83840FEF7FEBFA9
:10F2300038BD38B504460D46FFF706F8FF2810D054
:10F24000062804D84D2323FA00F0C30709D420462A
:10F25000FFF7A0FF28B129462046BDE83840FFF758
:10F2600001B838BD10B50446FFF794FF50B1032133
:10F270002046FEF7CDFF032804D12046BDE810400C
:10F28000FEF7FEBF002010BD7047000038B5142502
:10F2900004462A46002100F00CF925804025074944
:10F2A00028462581258200F0EFF804496060284651
:10F2B00000F0EAF8E060204638BD00BF3CFF3F02A6
:10F2C0007047704710B50446FFF7E0FF204610BDB9
:10F2D00010B50446FFF7DAFF204610BD10B504460E
:10F2E000FFF7D4FF204610BD30B50E4D87B0D5E8EE
:10F2F0008F1F11F0010411D12846FEF702FF68B1FB
:10F3000001A8FFF7DFFF214601AA0748FFF7C8FD64
:10F310002846FEF7FBFE054800F0B8F8024807B0A3
:10F3200030BD00BF04AF071010AF071019FA3F023D
:10F3300010B50D4C86B0D4E88F3FDB0711D42046C2
:10F34000FEF7DFFE68B101A8FFF7C2FF012101AAA5
:10F350000648FFF7A5FD2046FEF7D8FE044800F05A
:10F3600095F8024806B010BD08AF071024AF07108B
:10F3700053FA3F0210B5FFF7DBFF074B044653B1CA
:10F38000FFF7A2FD38B1236820461B699847002883
:10F3900001DD00E000BF10BD0000000010B50D4C05
:10F3A00086B0D4E88F3FDB0711D42046FEF7A9FED4
:10F3B00068B101A8FFF792FF022101AA0648FFF7F2
:10F3C0006FFD2046FEF7A2FE044800F05FF80248F9
:10F3D00006B010BD0CAF071038AF071051FA3F024E
:10F3E00010B5FFF7DBFF074B044653B1FFF76CFD89
:10F3F00038B1236820461B699847002801DD00E0EA
:10F4000000BF10BD000000007047000038B50A4B77
:10F4100004460360012309494361202000F034F8C9
:10F420002025606005492846A56000F02DF8C4E954
:10F430000305204638BD00BF180001003CFF3F0215
:10F4400030B50E4D87B0D5E88F1F11F0010411D1F2
:10F450002846FEF756FE68B16846FFF7D7FF6A46B2
:10F4600021460748FFF760FD2846FEF74FFE054896
:10F4700000F00CF8024807B030BD00BF50AF0710D5
:10F4800054AF071099FB3F02FEF737BE0023014639
:10F490001A46184600F044B80A44431E914200D16F
:10F4A000704710B511F8014B914203F8014FF9D1A3
:10F4B00010BD02440346934200D1704703F8011B7C
:10F4C000F9E7000038B5104B04461D68AB6BB3B9C3
:10F4D0001820FFF791F90246A86320B90B4B42218F
:10F4E0000B48FFF7B3F90B490B4BC0E900130B4B6B
:10F4F000002183600B2383810120C2E90401AB6BEF
:10F5000000221C615A6138BD04AE07103DFF3F0266
:10F5100054FF3F020E33CDAB34126DE6ECDE050036
:10F520002DE9F843DFF8BC8006461F460D46D8F8A3
:10F530000000914600F058F8264B1C6834B9264C60
:10F540001C60264B13B11B68C4F8883063681F2BFE
:10F5500007DDD8F8000000F049F84FF0FF30BDE8B3
:10F56000F8835EB3D4F8880088B91D4B23B9D8F866
:10F57000000000F03AF8F0E74FF48470FFF73CF930
:10F580000028F4D00023C0E94033C4F88800636841
:10F590000122022E40F8239002FA03F200EB8301CD
:10F5A000D0F8003143EA0203C0F80031C1F880709E
:10F5B00002BFD0F804311343C0F804316368D8F8AF
:10F5C00000005A1C0233626044F8235000F00EF829
:10F5D0000020C4E7F4AF071068AF07100000000078
:10F5E00089EF3F0268AE0710704770477047000010
:10F5F00051E83F0279E83F027DE83F020000000049
:10F6000072656164696E6720256900000000000072
:10F610000000000073F03F0269F03F025FF03F021C
:10F6200055F03F0249F03F023DF03F02CDF73F0267
:10F63000D5F73F0231F03F0229F03F021FF03F02B1
:10F6400015F03F02FDF83F0205F83F020DF83F02BA
:10F650006170700025592D256D2D25645425483A7B
:10F66000254D3A2553257A0061736374696D6500F1
:10F670000000000000000000C9F33F02B9F33F02A0
:10F68000BBF33F020000000000000000AFF43F02A7
:10F6900017F53F02EDF43F02D9F03F02DFF43F02DD
:10F6A000B1F43F02C1F43F0211F53F020FF23F02F5
:10F6B000D1F43F02A9F43F02000000000000000066
:10F6C000B5F53F0221F63F02F9F53F02D9F03F02BE
:10F6D000C9F53F02E5F53F02D7F53F02F3F53F02DA
:10F6E0000FF23F02B7F53F02BBF53F0200000000FA
:10F6F000000000005FF63F02A9F63F0281F63F02DC
:10F7000061F63F0289F63F0291F63F0299F63F0209
:10F71000A1F63F020FF23F020000000000000000CF
:10F720006FF73F0265F73F025BF73F0211F73F02B9
:10F730004FF73F0243F73F02CDF73F02D5F73F02B5
:10F7400037F73F022FF73F0225F73F021BF73F0233
:10F75000FDF83F0205F83F020DF83F0280AE0710AA
:10F76000E8AE0710F0AE0710000000000000000037
:10F770008DF73F0297F73F02A1F73F02ABF73F0239
:10F78000B5F73F02C1F73F02CDF73F02D5F73F0281
:10F79000DDF73F02E9F73F02F1F73F02FBF73F02D7
:10F7A000FDF83F0205F83F020DF83F0200524545C3
:10F7B0004E54206D616C6C6F632073756363656577
:10F7C000646564002F6D6E742F776F726B73706158
:10F7D00063652F776F726B73706163652F47434367
:10F7E0002D31302D706970656C696E652F6A656E9C
:10F7F0006B696E732D4743432D31302D70697065F1
:10F800006C696E652D34385F3230323031313234CC
:10F810005F313630363138303634312F7372632FE2
:10F820006E65776C69622F6E65776C69622F6C69A3
:10F8300062632F7374646C69622F72616E642E63ED
:10F840000000000051E93F027DF03F02A5F03F02B9
:10F85000C9F03F0239F23F0249F23F025DF23F0236
:0CF86000F5F63F0279F73F0211F93F0274
:10F86C0000000002F8FD3F0208AE07100000000087
:10F87C00000000000000000000000000000000007C
:10F88C00000000000000000000000000000000006C
:10F89C00000000000000000000000000000000005C
:10F8AC00000000000000000000000000000000004C
:10F8BC00000000000000000000000000000000003C
:10F8CC00000000000000000000000000F8AF07106E
:04F8DC000000000028
:10FFBE000200100000E05F08A8E05F0838E83F028A
:10FFCE0001000A00FFFFFFFFFFFF00000102030414
:10FFDE0005060708090A0B0C0D0E0F10111213144B
:0EFFEE0015161718191A1B1C1D1E1F203E0089
:04FFFC0078563412ED
:04000005085FE01898
:00000001FF
